:040000007FEF13F08B
:10100000003738392F3435362A3132332D23303DED
:101010002B0E0A111111111F00202020202020204A
:101020002020202020202020202020002143616C2F
:1010300063756C61746F72210048656C6C6F204140
:0F1040006C6C004C6F6164696E6700256900007D
:101050001AEC14F0B4EC10F02A0E3E6E000E3F6E47
:10106000010E406EC5EC11F02A0E3E6E000E3F6E72
:101070000E0E406EC5EC11F092EC12F02A0E3E6E90
:10108000000E3F6E010E406EC5EC11F0220E3B6E5D
:10109000000E3C6E300E3D6E000E3E6EDEEC0EF02D
:1010A000820E576EDE0EE82EFED7572EFCD7410E6D
:1010B0003018D8B45EEF08F060EF08F02BEF09F0BD
:1010C0006950D8A466EF08F068EF08F02BEF09F03C
:1010D000230E3018D8A46FEF08F071EF08F0CAEFB4
:1010E00008F02A0E3E6E000E3F6E010E406EC5ECFB
:1010F00011F0000E696EE00E316E000E326E000EC1
:10110000346E000E336E000E366E200E356E44ECDB
:101110000AF0C00E316E000E326E000E346E000EFC
:10112000336E000E366E200E356E44EC0AF0000E63
:10113000686E000E646E000E656E000E666E000E28
:10114000676E000E606E000E616E000E626E000E25
:10115000636E000E5C6E000E5D6E000E5E6E000E25
:101160005F6E800E316E000E326E000E346E000E19
:10117000336E000E366E400E356E44EC0AF0410EB2
:10118000306E820E576EDE0EE82EFED7572EFCD73D
:1011900046EF08F02A0E3018D8B4D1EF08F0D3EF9C
:1011A00008F0EEEF08F02D0E3018D8B4DAEF08F0A2
:1011B000DCEF08F0EEEF08F02B0E3018D8B4E3EFB8
:1011C00008F0E5EF08F0EEEF08F02F0E3018D8A485
:1011D000ECEF08F0EEEF08F00CEF09F02A0E3E6E8F
:1011E000000E3F6E30C040F070EC11F030C068F07F
:1011F000820E576EDE0EE82EFED7572EFCD7410E1C
:10120000306E820E576EDE0EE82EFED7572EFCD7BC
:10121000010E696E46EF08F0E00E356E000E366E78
:10122000300E376E000E386E000E3A6E010E396EBB
:1012300057EC12F02A0E3E6E000E3F6E30C040F0AA
:1012400070EC11F0820E576EDE0EE82EFED7572E90
:10125000FCD7BFEF08F0410E3018D8B432EF09F0D8
:1012600034EF09F046EF08F06904D8A43AEF09F02A
:101270003CEF09F046EF08F0230E3018D8A443EFF6
:1012800009F045EF09F047EF09F071EF08F03D0E66
:101290003018D8A44EEF09F050EF09F032EF0AF001
:1012A0002A0E3E6E000E3F6E30C040F070EC11F022
:1012B000820E576EDE0EE82EFED7572EFCD7E00EBC
:1012C000376E000E386EB6EC0DF037C064F038C0E3
:1012D00065F0000E65BEFF0E666E676EC00E376E5F
:1012E000000E386EB6EC0DF037C060F038C061F01B
:1012F000000E61BEFF0E626E636E2B0E6818D8A4DE
:1013000084EF09F086EF09F094EF09F0605064244F
:101310005C6E615065205D6E625066205E6E63504B
:1013200067205F6EF5EF09F02D0E6818D8A49BEFCB
:1013300009F09DEF09F0ABEF09F06050645C5C6E62
:10134000615065585D6E625066585E6E63506758B6
:101350005F6EF5EF09F02A0E6818D8A4B2EF09F015
:10136000B4EF09F0D0EF09F064C031F065C032F09D
:1013700066C033F067C034F060C035F061C036F04D
:1013800062C037F063C038F001EC13F031C05CF09C
:1013900032C05DF033C05EF034C05FF0F5EF09F0AD
:1013A0002F0E6818D8A4D7EF09F0D9EF09F0F5EFA0
:1013B00009F064C031F065C032F066C033F067C038
:1013C00034F060C035F061C036F062C037F063C001
:1013D00038F058EC0EF031C05CF032C05DF033C034
:1013E0005EF034C05FF0F5EF09F05C505D105E1008
:1013F0005F10D8A4FEEF09F000EF0AF00AEF0AF040
:101400002A0E3E6E000E3F6E300E406E70EC11F0F4
:1014100022EF09F0800E316E000E326E000E346E37
:10142000000E336E000E366E400E356E44EC0AF040
:10143000800E3F6E000E406E5CC041F05DC042F019
:101440005EC043F05FC044F061EC0CF02A0E416EC8
:10145000000E426E800E436E000E446E36EC13F0AA
:1014600022EF09F0C00E356E000E366E300E376E6C
:10147000000E386E000E3A6E010E396E57EC12F007
:101480001AEF09F000EF00F031C03BF032C03CF041
:1014900035503610D8A44FEF0AF051EF0AF053EF51
:1014A0000AF0FEEF0AF03BC0D9FF3CC0DAFF33C0C0
:1014B000DFFF35503B24376E36503C20386EFF0E30
:1014C0003724D96EFF0E3820DA6E33C0DFFF365076
:1014D00007E1030E355CD8B070EF0AF072EF0AF046
:1014E00074EF0AF0FEEF0AF020EE01F03B50D9262F
:1014F0003C50DA2233C0DFFF20EE02F03B50D92609
:101500003C50DA2233C0DFFF35503B24376E365073
:101510003C20386EFE0E3724D96EFF0E3820DA6E6E
:1015200033C0DFFF35503B24376E36503C20386ED9
:10153000FD0E3724D96EFF0E3820DA6E33C0DFFF80
:10154000365007E1070E355CD8B0A9EF0AF0ABEFD3
:101550000AF0ADEF0AF0FEEF0AF020EE03F03B5088
:10156000D9263C50DA2233C0DFFF35503B24376E9A
:1015700036503C20386EFC0E3724D96EFF0E3820D2
:10158000DA6E33C0DFFF365007E1090E355CD8B0A4
:10159000CCEF0AF0CEEF0AF0D0EF0AF0FEEF0AF03F
:1015A0003BC037F03CC038F0371E381E374A382A67
:1015B000030E3714396E3A6A39503B263A503C22B2
:1015C0003950355E3A50365AFC0E3516FF0E361637
:1015D000F5EF0AF03BC0D9FF3CC0DAFF33C0DFFFB4
:1015E0003506D8A036063B4A3C2A35503610D8A4DA
:1015F000FCEF0AF0FEEF0AF0EAEF0AF012004150A9
:101600004210D8A406EF0BF008EF0BF00AEF0BF036
:10161000AFEF0BF041C031F042C032F0B0EC0BF054
:1016200041C031F042C032F0000E336E11EC0DF0CB
:10163000010E4124316E000E4220326EB0EC0BF0F0
:10164000010E4124316E000E4220326E000E336EC8
:1016500011EC0DF0000E466E000E456E4550412413
:10166000436E46504220446E020E4324316E000EFB
:101670004420326EB0EC0BF045504124436E46508E
:101680004220446E020E4324316E000E4420326E1E
:10169000000E336E11EC0DF0454A462A46BE5AEF55
:1016A0000BF0465009E1040E455CD8A05AEF0BF050
:1016B0005CEF0BF02EEF0BF0420EE82EFED700D0C1
:1016C00041C03EF042C03FF0380E406EC5EC11F014
:1016D000100EE82EFED700D041C03EF042C03FF0D1
:1016E000380E406EC5EC11F0050EE82EFED741C055
:1016F0003EF042C03FF0380E406EC5EC11F041C0E4
:101700003EF042C03FF0010E406EC5EC11F041C00A
:101710003EF042C03FF0020E406EC5EC11F041C0F9
:101720003EF042C03FF0060E406EC5EC11F041C0E5
:101730003EF042C03FF00C0E406EC5EC11F041C0CF
:101740003EF042C03FF0280E406EC5EC11F041C0A3
:101750003EF042C03FF0800E406EC5EC11F012002A
:10176000010E396E31503210D8B4B9EF0BF0BBEF27
:101770000BF0DBEF0BF031C0D9FF32C0DAFFDF50E6
:10178000070B336E050E3360C8EF0BF0CAEF0BF09A
:10179000DBEF0BF031C0D9FF32C0DAFFDF30E832C7
:1017A000E832070B336E070E3364D9EF0BF0DBEF33
:1017B0000BF03EEF0CF0000E396E5FEF0CF031C015
:1017C000D9FF32C0DAFFDF30E832E832070B336E80
:1017D000010E346E332AEFEF0BF0D8903436332EEF
:1017E000EDEF0BF03450FF0A356E31C0D9FF32C037
:1017F000DAFFDF50070B366E3650020D150EF3245C
:10180000D96E000EF420DA6EDECF37F0DDCF38F07F
:1018100037C0D9FF38C0DAFF3550DF165FEF0CF064
:1018200031C0D9FF32C0DAFFDF30E832E832070BCF
:10183000336E010E346E332A20EF0CF0D89034361C
:10184000332E1EEF0CF031C0D9FF32C0DAFFDF506B
:10185000070B356E3550020D150EF324D96E000EB0
:10186000F420DA6EDECF36F0DDCF37F036C0D9FFA8
:1018700037C0DAFF3450DF125FEF0CF031C0D9FF10
:1018800032C0DAFFDFBC47EF0CF04AEF0CF0010E7C
:101890004BEF0CF0000E336E346A3450000AD8B4AB
:1018A00054EF0CF0DBEF0BF03350000AD8B4DFEF4D
:1018B0000BF0010AD8B410EF0CF0DBEF0BF039504D
:1018C0001200000E536E000E546E000E556E000E88
:1018D000566E41C04FF042C050F043C051F044C07A
:1018E00052F093EF0CF0010E5326000E54225522B5
:1018F00056224FC031F050C032F051C033F052C0C8
:1019000034F00A0E356E000E366E000E376E000E85
:10191000386E58EC0EF031C04FF032C050F033C08A
:1019200051F034C052F04F50501051105210D8A402
:101930009CEF0CF09EEF0CF073EF0CF0000E4B6E72
:10194000000E4C6E000E4D6E000E4E6EF5EF0CF05C
:1019500041C031F042C032F043C033F044C034F0F3
:101960000A0E356E000E366E000E376E000E386EA3
:1019700061EC0FF031C047F032C048F033C049F09D
:1019800034C04AF041C031F042C032F043C033F0BD
:1019900044C034F00A0E356E000E366E000E376EFF
:1019A000000E386E58EC0EF031C041F032C042F0FB
:1019B00033C043F034C044F04B503F5C456E4C5054
:1019C0004058466E5350452654504622FF0E45243B
:1019D000D96EFF0E4620DA6E4750300FDF6E010ED3
:1019E0004B26000E4C224D224E2253504B5C54503D
:1019F0004C5855504D584E50800A456E5650800AEE
:101A00004558D8A006EF0DF008EF0DF0A8EF0CF048
:101A100053503F24D96E54504020DA6E000EDF6ED2
:101A20001200010E3A6E31503210D8B41AEF0DF098
:101A30001CEF0DF03CEF0DF031C0D9FF32C0DAFFE2
:101A4000DF50070B346E050E346029EF0DF02BEFDD
:101A50000DF03CEF0DF031C0D9FF32C0DAFFDF30BE
:101A6000E832E832070B346E070E34643AEF0DF0BB
:101A70003CEF0DF09FEF0DF0000E3A6EB4EF0DF05D
:101A800031C0D9FF32C0DAFFDF30E832E832070B6D
:101A9000346E010E356E342A50EF0DF0D890353685
:101AA000342E4EEF0DF03550FF0A366E31C0D9FF9F
:101AB00032C0DAFFDF50070B376E3750020D0B0EC6
:101AC000F324D96E000EF420DA6EDECF38F0DDCFCD
:101AD00039F038C0D9FF39C0DAFF3650DF16B4EF1D
:101AE0000DF031C0D9FF32C0DAFFDF30E832E83222
:101AF000070B346E010E356E342A81EF0DF0D8904D
:101B00003536342E7FEF0DF031C0D9FF32C0DAFF09
:101B1000DF50070B366E3650020D0B0EF324D96ED4
:101B2000000EF420DA6EDECF37F0DDCF38F037C0AC
:101B3000D9FF38C0DAFF3550DF12B4EF0DF0335063
:101B4000346E356A3550000AD8B4A9EF0DF03CEF79
:101B50000DF03450000AD8B440EF0DF0010AD8B4AB
:101B600071EF0DF03CEF0DF03A501200000E3F6E99
:101B7000000E3E6E000E3D6E000E3C6EC2EF0DF08C
:101B8000374A382A37C0D9FF38C0DAFF200EDE18AE
:101B9000D8B4CDEF0DF0CFEF0DF0C0EF0DF037C0A2
:101BA000D9FF38C0DAFFDF50396EF70E39243A6EAC
:101BB0003B6AFF0E3B223B5009E1050E3A5CD8A080
:101BC000E4EF0DF0E6EF0DF0C0EF0DF0F0EF0DF0EB
:101BD000000E3D6E010E3C6E374A382A25EF0EF09E
:101BE00037C0D9FF38C0DAFFDF50396E3A6A3A5051
:101BF000000AD8B4FEEF0DF025EF0EF039502B0A95
:101C0000D8B4ECEF0DF0060AD8B4E8EF0DF025EFEC
:101C10000EF03EC031F03FC032F0000E346E0A0EBE
:101C2000336E07EC14F037C0D9FF38C0DAFFDF504D
:101C3000396E3950315E000E325A300E31243E6E0C
:101C4000000E32203F6EECEF0DF037C0D9FF38C0E8
:101C5000DAFFDF50396ED00E39243A6E3B6AFF0E40
:101C60003B223B5009E10A0E3A5CD8A03AEF0EF055
:101C70003CEF0EF009EF0EF03C503D10D8A443EFBE
:101C80000EF045EF0EF053EF0EF03EC039F03FC0BE
:101C90003AF0391E3A1E394A3A2A39C037F03AC06A
:101CA00038F057EF0EF03EC037F03FC038F012006A
:101CB000000E3A6E38BE61EF0EF05FEF0EF06BEF84
:101CC0000EF0381E371E361E356C000E36223722B7
:101CD0003822010E3A6E34BE72EF0EF070EF0EF045
:101CE0007CEF0EF0341E331E321E316C000E322299
:101CF00033223422010E3A1A000E3B6E000E3C6E67
:101D0000000E3D6E000E3E6E355036103710381006
:101D1000D8B48DEF0EF08FEF0EF0C5EF0EF0010E80
:101D2000396E99EF0EF0D89035363636373638366C
:101D3000392A38AE9EEF0EF0A0EF0EF093EF0EF0C2
:101D4000D8903B363C363D363E363550315C3650C9
:101D500032583750335838503458D8A0B2EF0EF0BC
:101D6000B4EF0EF0BDEF0EF03550315E3650325A02
:101D70003750335A3850345A3B80D8903832373243
:101D800036323532392EA0EF0EF03A50D8B4CBEFC0
:101D90000EF0CDEF0EF0D5EF0EF03E1E3D1E3C1EB8
:101DA0003B6C000E3C223D223E223BC031F03CC049
:101DB00032F03DC033F03EC034F01200040E416EEC
:101DC000040E426E040E436E000E456E3B503C10F6
:101DD000D8A4EDEF0EF0EFEF0EF0F1EF0EF060EFA4
:101DE0000FF0000E466E57EF0FF0000E446E04EF3A
:101DF0000FF044503B24316E000E3C20326E000E3A
:101E0000336E11EC0DF0442A4250445CD8A00BEF25
:101E10000FF00DEF0FF0F9EF0EF046503B24316E4E
:101E2000000E3C20326E010E336E11EC0DF0000EF0
:101E3000476E4DEF0FF047503B243F6E000E3C20A5
:101E4000406E040E3F24316E000E4020326E450E6F
:101E5000336E000E346E49EC10F04504D8A433EF15
:101E60000FF035EF0FF04CEF0FF04650040D010E60
:101E7000F3243F6E100EF420406E47503F26000EB4
:101E800040223FC0F6FF40C0F7FF3DC0D9FF3EC033
:101E9000DAFF0800F5CFDFFF472A4350475CD8A0A0
:101EA00054EF0FF056EF0FF01BEF0FF0462A4150A2
:101EB000465CD8A05EEF0FF060EF0FF0F5EF0EF08C
:101EC0001200000E3A6E34BE6AEF0FF068EF0FF0AA
:101ED00074EF0FF0341E331E321E316C000E3222AE
:101EE00033223422010E3A6E38BE7BEF0FF079EFC9
:101EF0000FF083EF0FF0381E371E361E356C000EC4
:101F00003622372238223550361037103810D8B4E0
:101F10008CEF0FF08EEF0FF0BEEF0FF0010E396E69
:101F200098EF0FF0D8903536363637363836392AAE
:101F300038AE9DEF0FF09FEF0FF092EF0FF035509E
:101F4000315C365032583750335838503458D8A056
:101F5000ACEF0FF0AEEF0FF0B6EF0FF03550315E93
:101F60003650325A3750335A3850345AD890383263
:101F7000373236323532392E9FEF0FF03A50D8B41F
:101F8000C4EF0FF0C6EF0FF0CEEF0FF0341E331E8C
:101F9000321E316C000E32223322342231C031F035
:101FA00032C032F033C033F034C034F01200040ECB
:101FB000416E040E426E3B503C10D8A4E2EF0FF08D
:101FC000E4EF0FF0E6EF0FF048EF10F0000E436E75
:101FD00005EF10F043503B24316E000E3C20326E72
:101FE000B0EC0BF043503B24316E000E3C20326EBF
:101FF00043503B24D96E000E3C20DA6E000EDFBE4B
:10200000010E336E11EC0DF0432A4150435CD8A011
:102010000CEF10F00EEF10F0EAEF0FF0000E446E30
:102020003FEF10F044503B243D6E000E3C203E6ECE
:10203000040E3D24316E000E3E20326EB0EC0BF0EB
:1020400044503B243D6E000E3C203E6E040E3D2469
:10205000316E000E3E20326E44503B243F6E000E27
:102060003C20406E040E3F24D96E000E4020DA6EF4
:10207000000EDFBE010E336E11EC0DF0442A42500B
:10208000445CD8A046EF10F048EF10F012EF10F0CB
:102090001200010E3A6E31503210D8B452EF10F0E7
:1020A00054EF10F07DEF10F033503410D8B45BEFE4
:1020B00010F05DEF10F07DEF10F031C0D9FF32C0AD
:1020C000DAFFDF50070B356E050E35606AEF10F052
:1020D0006CEF10F07DEF10F031C0D9FF32C0DAFFA5
:1020E000DF30E832E832070B356E070E35647BEFE0
:1020F00010F07DEF10F081EF10F0000E3A6EB2EFAD
:1021000010F031C0D9FF32C0DAFFDF30E832E832F8
:10211000070B356E31C0D9FF32C0DAFFDF50070B35
:10212000366E3650020D010EF324D96E000EF420E7
:10213000DA6EDECF37F0DDCF38F037C0D9FF38C0E8
:10214000DAFFDF50396E352AA8EF10F0D890393217
:10215000352EA6EF10F03950010B33C0D9FF34C033
:10216000DAFFDF6E3A501200000E506E010E4F6E15
:102170002A0E476E000E486E010E496E4FC04AF09F
:10218000390E4B6E100E4C6ECCEC12F02A0E476ED0
:10219000000E486E020E496E050E4A6E2C0E4B6EF6
:1021A000100E4C6ECCEC12F0020E4E6E450E4D6EC3
:1021B000AA0EE82EFED74D2EFCD74E2EFAD72A0EA9
:1021C000476E000E486E010E496E4FC04AF02A0E4F
:1021D0004B6E100E4C6ECCEC12F04F4A502A50BE93
:1021E000FBEF10F0505009E1070E4F5CD8A0FBEF59
:1021F00010F0FDEF10F0B8EF10F02A0E476E000E51
:10220000486E010E496E010E4A6E190E4B6E100E8D
:102210004C6ECCEC12F02A0E476E000E486E010E8A
:10222000496E060E4A6E390E4B6E100E4C6ECCEC9B
:1022300012F01200440641504210D8A422EF11F0CF
:1022400024EF11F052EF11F06FEF11F041C03EF0AA
:1022500042C03FF04450800F406EC5EC11F06FEF6C
:1022600011F041C03EF042C03FF04450C00F406EFC
:10227000C5EC11F06FEF11F041C03EF042C03FF0ED
:102280004450940F406EC5EC11F06FEF11F041C057
:102290003EF042C03FF04450D40F406EC5EC11F008
:1022A0006FEF11F04350456E466A4650000AD8B4AD
:1022B0005CEF11F06FEF11F04550010AD8B426EF32
:1022C00011F0030AD8B431EF11F0010AD8B43CEF91
:1022D00011F0070AD8B447EF11F06FEF11F01200B8
:1022E0003E503F10D8A477EF11F079EF11F07BEF5B
:1022F00011F0C4EF11F03EC031F03FC032F0010EDA
:10230000336E11EC0DF03EC03BF03FC03CF0403866
:102310000F0B3D6E1AEC12F0010E3E24316E000ED2
:102320003F20326E010E336E11EC0DF0100EE82ED0
:10233000FED700D0010E3E24316E000E3F20326EDB
:10234000000E336E11EC0DF03EC03BF03FC03CF090
:1023500040C03DF01AEC12F0010E3E24316E000E2A
:102360003F20326E010E336E11EC0DF0100EE82E90
:10237000FED700D0010E3E24316E000E3F20326E9B
:10238000000E336E11EC0DF012003E503F10D8A439
:10239000CCEF11F0CEEF11F0D0EF11F019EF12F0F9
:1023A0003EC031F03FC032F0000E336E11EC0DF044
:1023B0003EC03BF03FC03CF040380F0B3D6E1AEC86
:1023C00012F0010E3E24316E000E3F20326E010EDF
:1023D000336E11EC0DF0100EE82EFED700D0010E7A
:1023E0003E24316E000E3F20326E000E336E11EC33
:1023F0000DF03EC03BF03FC03CF040C03DF01AEC59
:1024000012F0010E3E24316E000E3F20326E010E9E
:10241000336E11EC0DF0100EE82EFED700D0010E39
:102420003E24316E000E3F20326E000E336E11ECF2
:102430000DF012003B503C10D8A421EF12F023EF16
:1024400012F025EF12F056EF12F0020E3B24316E1F
:10245000000E3C20326E3D50010B336E11EC0DF03E
:10246000030E3B24316E000E3C20326ED8903D307E
:10247000010B336E11EC0DF0040E3B24316E000E97
:102480003C20326E3D40E8423F0B010B336E11ECB5
:102490000DF0050E3B24316E000E3C20326E3D38AF
:1024A000E8461F0B010B336E11EC0DF0120035C026
:1024B00031F036C032F0BEEC13F0315035263250D8
:1024C000362274EF12F03906D8A03A0637C0D9FF89
:1024D00038C0DAFF35C0E1FF36C0E2FFDFCFE7FFEB
:1024E000374A382A354A362A39503A10D8B47BEF61
:1024F00012F07DEF12F089EF12F037C0D9FF38C02B
:10250000DAFFDF50D8A487EF12F089EF12F063EF03
:1025100012F035C0D9FF36C0DAFF000EDF6E354A43
:10252000362A12002A0E476E000E486E010E496EC2
:10253000010E4A6E430E4B6E100E4C6ECCEC12F038
:10254000000E506E080E4F6E2A0E476E000E486E3B
:10255000010E496E4FC04AF02E0E4B6EA0EC13F0E8
:10256000020E4E6E450E4D6EAA0EE82EFED74D2E73
:10257000FCD74E2EFAD74F4A502A50BEC9EF12F060
:10258000505009E1100E4F5CD8A0C9EF12F0CBEF0C
:1025900012F0A4EF12F0120047504810D8A4D3EF65
:1025A00012F0D5EF12F0D7EF12F000EF13F047C0A2
:1025B00041F048C042F049C043F04AC044F01AEC30
:1025C00011F0F2EF12F047C03EF048C03FF04BC0B0
:1025D000F6FF4CC0F7FF0800F5CF40F070EC11F0AB
:1025E0004B4A4C2A4BC0F6FF4CC0F7FF0800F55091
:1025F0000009D8A4FEEF12F000EF13F0E3EF12F0A1
:102600001200000E396E000E3A6E000E3B6E000E88
:102610003C6E31A00EEF13F010EF13F018EF13F033
:102620003550392636503A2237503B2238503C221A
:10263000D8903536363637363836D890343233324D
:10264000323231323150321033103410D8A42BEFE3
:1026500013F02DEF13F009EF13F039C031F03AC049
:1026600032F03BC033F03CC034F012004150421015
:10267000D8A43DEF13F03FEF13F04FEF13F05BEFF3
:1026800013F041C03EF042C03FF043C0D9FF44C008
:10269000DAFFDF50406E70EC11F0434A442A43C029
:1026A000D9FF44C0DAFFDF50D8A459EF13F05BEF35
:1026B00013F041EF13F01200010E356E200E3118A9
:1026C0003210D8B466EF13F068EF13F07BEF13F01D
:1026D000F70E3124336EFF0E3220346E345009E190
:1026E000050E335CD8A077EF13F079EF13F07BEF92
:1026F00013F0000E356E35C031F0326A1200B20EA2
:10270000F66E270EF76E000EF86E00EE01F010EE7A
:1027100030F00900F5CFEEFFE550E150FAE100EEB0
:1027200080F0800EEE6AE806FDE100EE58F0210E22
:10273000EE6AE806FDE1000EF86E000128EF08F0F1
:1027400047504810D8A4A7EF13F0A9EF13F0ABEF50
:1027500013F0BDEF13F047C041F048C042F049C04C
:1027600043F04AC044F01AEC11F047C03EF048C0B4
:102770003FF04BC040F070EC11F0120031C033F06C
:1027800032C034F0C6EF13F0314A322A31C0D9FFDB
:1027900032C0DAFFDF50D8A4D0EF13F0D2EF13F03D
:1027A000C4EF13F03350315C316E34503258326E16
:1027B0001200800F810F820F830F840F890F8A0F01
:1027C0008B0F8C0F8D0F920F930F940F950F960F09
:1027D000010001030B131B636B737B020A121A22A5
:1027E0002A41D00E3124336EFF0E3220346E345025
:1027F0000AE10A0E335CD8A000EF14F003EF14F0E6
:10280000010E04EF14F0000E316E326A12003150E6
:102810003302F3CF35F0F4CF36F031503402F350B9
:10282000362632503302F350362635C031F036C0EA
:1028300032F012002A0E416E000E426EFFEC0AF0DA
:0E284000220E3B6E000E3C6ED7EC0FF0120025
:020000040020DA
:08000000FFFFFFFFFFFFFFFF00
:020000040030CA
:0E000000FF02091EFF8381FF0FC00FE00F40BB
:00000001FF
